{
  "_format": "hh-sol-artifact-1",
  "contractName": "ERC20UniqueNonceValidatorFactory",
  "sourceName": "contracts/factories/ERC20UniqueNonceValidator.sol",
  "abi": [
    {
      "inputs": [],
      "stateMutability": "nonpayable",
      "type": "constructor"
    },
    {
      "inputs": [],
      "name": "CreateFail",
      "type": "error"
    },
    {
      "anonymous": false,
      "inputs": [
        {
          "indexed": true,
          "internalType": "address",
          "name": "creator",
          "type": "address"
        },
        {
          "indexed": true,
          "internalType": "uint256",
          "name": "nonce",
          "type": "uint256"
        },
        {
          "indexed": false,
          "internalType": "address",
          "name": "instance",
          "type": "address"
        },
        {
          "indexed": false,
          "internalType": "address",
          "name": "owner",
          "type": "address"
        },
        {
          "indexed": false,
          "internalType": "address",
          "name": "token",
          "type": "address"
        },
        {
          "indexed": false,
          "internalType": "uint256",
          "name": "amount",
          "type": "uint256"
        }
      ],
      "name": "Cloned",
      "type": "event"
    },
    {
      "inputs": [
        {
          "internalType": "uint256",
          "name": "nonce",
          "type": "uint256"
        },
        {
          "internalType": "address",
          "name": "owner",
          "type": "address"
        },
        {
          "internalType": "address",
          "name": "token",
          "type": "address"
        },
        {
          "internalType": "uint256",
          "name": "amount",
          "type": "uint256"
        },
        {
          "internalType": "address[]",
          "name": "issuers",
          "type": "address[]"
        }
      ],
      "name": "create",
      "outputs": [
        {
          "internalType": "contract ERC20UniqueNonceValidator",
          "name": "",
          "type": "address"
        }
      ],
      "stateMutability": "nonpayable",
      "type": "function"
    },
    {
      "inputs": [],
      "name": "implementation",
      "outputs": [
        {
          "internalType": "contract ERC20UniqueNonceValidator",
          "name": "",
          "type": "address"
        }
      ],
      "stateMutability": "view",
      "type": "function"
    }
  ],
  "bytecode": "0x60a060405234801561001057600080fd5b5060405161001d9061004b565b604051809103906000f080158015610039573d6000803e3d6000fd5b506001600160a01b0316608052610058565b61250a806106d483390190565b60805161065b6100796000396000818160400152610138015261065b6000f3fe608060405234801561001057600080fd5b50600436106100365760003560e01c80635c60da1b1461003b578063bd47615c1461008b575b600080fd5b6100627f000000000000000000000000000000000000000000000000000000000000000081565b60405173ffffffffffffffffffffffffffffffffffffffff909116815260200160405180910390f35b6100626100993660046104b1565b6040517fffffffffffffffffffffffffffffffffffffffff00000000000000000000000030606090811b8216602084015286811b8216603484015285901b166048820152605c81018390526000908190607c01604080517fffffffffffffffffffffffffffffffffffffffffffffffffffffffffffffffe08184030181529190529050600061015e73ffffffffffffffffffffffffffffffffffffffff7f00000000000000000000000000000000000000000000000000000000000000001683610253565b6040517f466fd51c00000000000000000000000000000000000000000000000000000000815290915073ffffffffffffffffffffffffffffffffffffffff82169063466fd51c906101b39087906004016105cb565b600060405180830381600087803b1580156101cd57600080fd5b505af11580156101e1573d6000803e3d6000fd5b50506040805173ffffffffffffffffffffffffffffffffffffffff85811682528b811660208301528a16818301526060810189905290518b93503392507f032be52d8b132fa7fb18fd872d3ada9bbf9bd9648d9fc784351b3fcdce8183629181900360800190a3979650505050505050565b80516040517f3d610000000000000000000000000000000000000000000000000000000000008152603a820160f081811b6002848101919091527f80600b3d3981f30000000000000000000000000000000000000000000000000060048501527f363d3d3761000000000000000000000000000000000000000000000000000000600b8501528401901b601083018190527f603836393d3d3d366100000000000000000000000000000000000000000000006012840152601b8301527f013d730000000000000000000000000000000000000000000000000000000000601d830152606085901b6020808401919091527f5af43d82803e903d91603657fd5bf3000000000000000000000000000000000060348401526000939260458401929186019084604382015b602082106103b957835181526020938401937fffffffffffffffffffffffffffffffffffffffffffffffffffffffffffffffe0909201910161037c565b83517fffffffffffffffffffffffffffffffffffffffffffffffffffffffffffffffff60208490036101000a0119908116825260f088901b91830191825286846000f0985073ffffffffffffffffffffffffffffffffffffffff891661044b576040517febfef18800000000000000000000000000000000000000000000000000000000815260040160405180910390fd5b505050505050505092915050565b803573ffffffffffffffffffffffffffffffffffffffff8116811461047d57600080fd5b919050565b7f4e487b7100000000000000000000000000000000000000000000000000000000600052604160045260246000fd5b600080600080600060a086880312156104c957600080fd5b8535945060206104da818801610459565b94506104e860408801610459565b935060608701359250608087013567ffffffffffffffff8082111561050c57600080fd5b818901915089601f83011261052057600080fd5b81358181111561053257610532610482565b8060051b6040517fffffffffffffffffffffffffffffffffffffffffffffffffffffffffffffffe0603f8301168101818110858211171561057557610575610482565b60405291825284820192508381018501918c83111561059357600080fd5b938501935b828510156105b8576105a985610459565b84529385019392850192610598565b8096505050505050509295509295909350565b6020808252825182820181905260009190848201906040850190845b8181101561061957835173ffffffffffffffffffffffffffffffffffffffff16835292840192918401916001016105e7565b5090969550505050505056fea2646970667358221220e83f275a1c73a9658c41a48ab28226823fdd75435f245dec8b436ba3e15d3ac164736f6c634300080a003360a060405234801561001057600080fd5b50306080526080516124c5610045600039600081816102c0015281816103b20152818161055001526105e201526124c56000f3fe608060405234801561001057600080fd5b50600436106100d45760003560e01c80638da5cb5b11610081578063c77d85151161005b578063c77d851514610260578063e8b1a9b214610273578063fc85b9e41461028657600080fd5b80638da5cb5b1461020d578063a5c1e8951461023a578063beabacc81461024d57600080fd5b80633b8c450c116100b25780633b8c450c14610179578063466fd51c146101b95780637a453bac146101ce57600080fd5b806301ffc9a7146100d95780632f54bf6e1461014357806338a7543e14610156575b600080fd5b61012e6100e7366004611b1b565b7fffffffff00000000000000000000000000000000000000000000000000000000167f01ffc9a7000000000000000000000000000000000000000000000000000000001490565b60405190151581526020015b60405180910390f35b61012e610151366004611b88565b6102a6565b61012e610164366004611b88565b60016020526000908152604090205460ff1681565b61018c610187366004611be5565b610397565b6040805173ffffffffffffffffffffffffffffffffffffffff93841681529290911660208301520161013a565b6101cc6101c7366004611cf0565b610429565b005b6101e16101dc366004611d9d565b610535565b6040805173ffffffffffffffffffffffffffffffffffffffff909316835260208301919091520161013a565b6102156105c8565b60405173ffffffffffffffffffffffffffffffffffffffff909116815260200161013a565b61012e610248366004611ddf565b610649565b6101cc61025b366004611e40565b610660565b6101cc61026e366004611e7c565b61073e565b61012e610281366004611ef1565b610858565b610299610294366004611ddf565b61089f565b60405161013a9190611f73565b60003073ffffffffffffffffffffffffffffffffffffffff7f0000000000000000000000000000000000000000000000000000000000000000161415610318576040517ff56b123b00000000000000000000000000000000000000000000000000000000815260040160405180910390fd5b61032260006108ad565b73ffffffffffffffffffffffffffffffffffffffff168273ffffffffffffffffffffffffffffffffffffffff16148061038f575061036060146108ad565b73ffffffffffffffffffffffffffffffffffffffff168273ffffffffffffffffffffffffffffffffffffffff16145b90505b919050565b6000803073ffffffffffffffffffffffffffffffffffffffff7f000000000000000000000000000000000000000000000000000000000000000016141561040a576040517ff56b123b00000000000000000000000000000000000000000000000000000000815260040160405180910390fd5b610419898989898989896108f0565b9150915097509795505050505050565b610432336102a6565b610468576040517f1648fd0100000000000000000000000000000000000000000000000000000000815260040160405180910390fd5b60005b81518110156104fa57600180600084848151811061048b5761048b611f86565b60209081029190910181015173ffffffffffffffffffffffffffffffffffffffff16825281019190915260400160002080547fffffffffffffffffffffffffffffffffffffffffffffffffffffffffffffff0016911515919091179055806104f281611fe4565b91505061046b565b507faad2373bff58b592b196d090a3ac0afe6726ad45e112affc585f6b8f59c394388160405161052a919061201d565b60405180910390a150565b6000803073ffffffffffffffffffffffffffffffffffffffff7f00000000000000000000000000000000000000000000000000000000000000001614156105a8576040517ff56b123b00000000000000000000000000000000000000000000000000000000815260040160405180910390fd5b6105b260286108ad565b6105bc603c610a2d565b915091505b9250929050565b60003073ffffffffffffffffffffffffffffffffffffffff7f000000000000000000000000000000000000000000000000000000000000000016141561063a576040517ff56b123b00000000000000000000000000000000000000000000000000000000815260040160405180910390fd5b61064460146108ad565b905090565b600061065785858585610a6d565b95945050505050565b610669336102a6565b61069f576040517f1648fd0100000000000000000000000000000000000000000000000000000000815260040160405180910390fd5b6040517fa9059cbb00000000000000000000000000000000000000000000000000000000815273ffffffffffffffffffffffffffffffffffffffff83811660048301526024820183905284169063a9059cbb906044016020604051808303816000875af1158015610714573d6000803e3d6000fd5b505050506040513d601f19601f820116820180604052508101906107389190612077565b50505050565b610747336102a6565b61077d576040517f1648fd0100000000000000000000000000000000000000000000000000000000815260040160405180910390fd5b60005b8181101561081a576000600160008585858181106107a0576107a0611f86565b90506020020160208101906107b59190611b88565b73ffffffffffffffffffffffffffffffffffffffff168152602081019190915260400160002080547fffffffffffffffffffffffffffffffffffffffffffffffffffffffffffffff00169115159190911790558061081281611fe4565b915050610780565b507f1c0e076cccd8d672f71d51d86a107970e24233bb9b3abd0eacc60c523c76f1a0828260405161084c929190612099565b60405180910390a15050565b73ffffffffffffffffffffffffffffffffffffffff8216600090815260208181526040808320600885901c8452909152812054600160ff84161b1615155b90505b92915050565b606061065785858585610b31565b6000806108e27ffffffffffffffffffffffffffffffffffffffffffffffffffffffffffffffffe368181013560f01c90030190565b929092013560601c92915050565b60008061090289898989898989610d8e565b90925090506000806109148a8a610535565b6040517fa9059cbb00000000000000000000000000000000000000000000000000000000815273ffffffffffffffffffffffffffffffffffffffff8e81166004830152602482018390529294509092509083169063a9059cbb906044016020604051808303816000875af1158015610990573d6000803e3d6000fd5b505050506040513d601f19601f820116820180604052508101906109b49190612077565b610a1f576040517f08c379a000000000000000000000000000000000000000000000000000000000815260206004820152600f60248201527f5472616e73666572206661696c6564000000000000000000000000000000000060448201526064015b60405180910390fd5b505097509795505050505050565b600080610a627ffffffffffffffffffffffffffffffffffffffffffffffffffffffffffffffffe368181013560f01c90030190565b929092013592915050565b6000806000610a7c8585610535565b6040517f70a082310000000000000000000000000000000000000000000000000000000081523060048201529193509150819073ffffffffffffffffffffffffffffffffffffffff8416906370a0823190602401602060405180830381865afa158015610aed573d6000803e3d6000fd5b505050506040513d601f19601f82011682018060405250810190610b1191906120f2565b10158015610b265750610b2687878787610e76565b979650505050505050565b6060610b50604051806040016040528060608152602001600081525090565b610b5c81610100610eea565b50600080610b6a8686610535565b9150915060008273ffffffffffffffffffffffffffffffffffffffff166395d89b416040518163ffffffff1660e01b8152600401600060405180830381865afa158015610bbb573d6000803e3d6000fd5b505050506040513d6000823e601f3d908101601f19168201604052610be3919081019061210b565b9050610bee84610f4f565b60408051808201909152600581527f7469746c650000000000000000000000000000000000000000000000000000006020820152610c2d908590610f5d565b610c5881604051602001610c41919061219f565b60408051601f198184030181529190528590610f5d565b60408051808201909152600581527f746f6b656e0000000000000000000000000000000000000000000000000000006020820152610c97908590610f5d565b6040517fffffffffffffffffffffffffffffffffffffffff000000000000000000000000606085901b166020820152610ce49060340160408051601f198184030181529190528590610f79565b60408051808201909152600981527f746f6b656e7479706500000000000000000000000000000000000000000000006020820152610d23908590610f5d565b610d2e846014610f86565b60408051808201909152600681527f616d6f756e7400000000000000000000000000000000000000000000000000006020820152610d6d908590610f5d565b610d778483610f86565b610d8084610fb0565b505090519695505050505050565b600080610da089898989898989610fbb565b90925090506000610db3888a018a61220b565b73ffffffffffffffffffffffffffffffffffffffff8416600090815260208181526040808320600885901c8452909152902054909150600160ff83161b1615610e2b576040517f91cab50400000000000000000000000000000000000000000000000000000000815260048101829052602401610a16565b73ffffffffffffffffffffffffffffffffffffffff8316600090815260208181526040808320600885901c845290915290208054600160ff84161b1790555097509795505050505050565b600080610e8583850185612224565b73ffffffffffffffffffffffffffffffffffffffff8716600090815260208181526040808320600885901c66ffffffffffffff168452909152902054909150600160ff83161b16158015610ee05750610ee0868686866110c9565b9695505050505050565b604080518082019091526060815260006020820152610f0a60208361224e565b15610f3257610f1a60208361224e565b610f25906020612289565b610f2f90836122a0565b91505b506020828101829052604080518085526000815290920101905290565b610f5a8160056110f7565b50565b610f6a826003835161110c565b610f74828261121b565b505050565b610f6a826002835161110c565b67ffffffffffffffff811115610fa457610fa08282611242565b5050565b610fa08260008361110c565b610f5a8160076110f7565b600080610fce308a8a8a8a8a8a8a611279565b73ffffffffffffffffffffffffffffffffffffffff8216600090815260016020526040902054919350915060ff1661104a576040517fe9d960d800000000000000000000000000000000000000000000000000000000815273ffffffffffffffffffffffffffffffffffffffff83166004820152602401610a16565b8173ffffffffffffffffffffffffffffffffffffffff1686866040516110719291906122b8565b60405180910390207f6b8cf58e752d5aa35b36c3b9405a653ebb24dbec95beba7ac574a37aa36e724f8b6110a786868e8e61089f565b6040516110b59291906122c8565b60405180910390a397509795505050505050565b73ffffffffffffffffffffffffffffffffffffffff841660009081526001602052604081205460ff16610657565b610f7482601f611fe0600585901b161761147f565b60178167ffffffffffffffff1611611131576107388360e0600585901b16831761147f565b60ff8167ffffffffffffffff161161116f57611158836018611fe0600586901b161761147f565b506107388367ffffffffffffffff831660016114a4565b61ffff8167ffffffffffffffff16116111ae57611197836019611fe0600586901b161761147f565b506107388367ffffffffffffffff831660026114a4565b63ffffffff8167ffffffffffffffff16116111ef576111d883601a611fe0600586901b161761147f565b506107388367ffffffffffffffff831660046114a4565b61120483601b611fe0600586901b161761147f565b506107388367ffffffffffffffff831660086114a4565b604080518082019091526060815260006020820152610896838460000151518485516114d2565b61124d8260c261147f565b50610fa0828260405160200161126591815260200190565b604051602081830303815290604052610f79565b60008060008a878760405161128f9291906122b8565b6040519081900381207f190000000000000000000000000000000000000000000000000000000000000060208301527fffffffffffffffffffffffffffffffffffffffff000000000000000000000000606093841b811660228401527f800000000000000000000000000000000000000000000000000000000000000060368401526037830191909152918c901b9091166057820152606b0160405160208183030381529060405280519060200120905060006113828287878080601f0160208091040260200160405190810160405280939291908181526020018383808284376000920191909152506115da92505050565b905060008c8b8b6040516113979291906122b8565b6040519081900381207f190000000000000000000000000000000000000000000000000000000000000060208301527fffffffffffffffffffffffffffffffffffffffff000000000000000000000000606093841b811660228401526000603684015260378301919091529184901b9091166057820152606b01604051602081830303815290604052805190602001209050600061146b828b8b8080601f0160208091040260200160405190810160405280939291908181526020018383808284376000920191909152506115da92505050565b9e929d50919b505050505050505050505050565b60408051808201909152606081526000602082015261089683846000015151846115fe565b6040805180820190915260608152600060208201526114ca84856000015151858561165a565b949350505050565b60408051808201909152606081526000602082015282518211156114f557600080fd5b602085015161150483866122a0565b111561153757611537856115278760200151878661152291906122a0565b6116db565b6115329060026122f7565b6116f2565b6000808651805187602083010193508088870111156115565787860182525b505050602084015b6020841061159657805182526115756020836122a0565b91506115826020826122a0565b905061158f602085612289565b935061155e565b5181517fffffffffffffffffffffffffffffffffffffffffffffffffffffffffffffffff60208690036101000a019081169019919091161790525083949350505050565b60008060006115e98585611709565b915091506115f681611776565b509392505050565b6040805180820190915260608152600060208201528360200151831061163357611633848560200151600261153291906122f7565b835180516020858301018481535080851415611650576001810182525b5093949350505050565b604080518082019091526060815260006020820152602085015161167e85846122a0565b1115611692576116928561152786856122a0565b600060016116a284610100612454565b6116ac9190612289565b90508551838682010185831982511617815250805184870111156116d05783860181525b509495945050505050565b6000818311156116ec575081610899565b50919050565b81516116fe8383610eea565b50610738838261121b565b6000808251604114156117405760208301516040840151606085015160001a611734878285856119cf565b945094505050506105c1565b82516040141561176a576020830151604084015161175f868383611ac9565b9350935050506105c1565b506000905060026105c1565b600081600481111561178a5761178a612460565b14156117935750565b60018160048111156117a7576117a7612460565b141561180f576040517f08c379a000000000000000000000000000000000000000000000000000000000815260206004820152601860248201527f45434453413a20696e76616c6964207369676e617475726500000000000000006044820152606401610a16565b600281600481111561182357611823612460565b141561188b576040517f08c379a000000000000000000000000000000000000000000000000000000000815260206004820152601f60248201527f45434453413a20696e76616c6964207369676e6174757265206c656e677468006044820152606401610a16565b600381600481111561189f5761189f612460565b141561192d576040517f08c379a000000000000000000000000000000000000000000000000000000000815260206004820152602260248201527f45434453413a20696e76616c6964207369676e6174757265202773272076616c60448201527f75650000000000000000000000000000000000000000000000000000000000006064820152608401610a16565b600481600481111561194157611941612460565b1415610f5a576040517f08c379a000000000000000000000000000000000000000000000000000000000815260206004820152602260248201527f45434453413a20696e76616c6964207369676e6174757265202776272076616c60448201527f75650000000000000000000000000000000000000000000000000000000000006064820152608401610a16565b6000807f7fffffffffffffffffffffffffffffff5d576e7357a4501ddfe92f46681b20a0831115611a065750600090506003611ac0565b8460ff16601b14158015611a1e57508460ff16601c14155b15611a2f5750600090506004611ac0565b6040805160008082526020820180845289905260ff881692820192909252606081018690526080810185905260019060a0016020604051602081039080840390855afa158015611a83573d6000803e3d6000fd5b5050604051601f19015191505073ffffffffffffffffffffffffffffffffffffffff8116611ab957600060019250925050611ac0565b9150600090505b94509492505050565b6000807f7fffffffffffffffffffffffffffffffffffffffffffffffffffffffffffffff831681611aff60ff86901c601b6122a0565b9050611b0d878288856119cf565b935093505050935093915050565b600060208284031215611b2d57600080fd5b81357fffffffff0000000000000000000000000000000000000000000000000000000081168114611b5d57600080fd5b9392505050565b803573ffffffffffffffffffffffffffffffffffffffff8116811461039257600080fd5b600060208284031215611b9a57600080fd5b61089682611b64565b60008083601f840112611bb557600080fd5b50813567ffffffffffffffff811115611bcd57600080fd5b6020830191508360208285010111156105c157600080fd5b60008060008060008060006080888a031215611c0057600080fd5b611c0988611b64565b9650602088013567ffffffffffffffff80821115611c2657600080fd5b611c328b838c01611ba3565b909850965060408a0135915080821115611c4b57600080fd5b611c578b838c01611ba3565b909650945060608a0135915080821115611c7057600080fd5b50611c7d8a828b01611ba3565b989b979a50959850939692959293505050565b7f4e487b7100000000000000000000000000000000000000000000000000000000600052604160045260246000fd5b604051601f8201601f1916810167ffffffffffffffff81118282101715611ce857611ce8611c90565b604052919050565b60006020808385031215611d0357600080fd5b823567ffffffffffffffff80821115611d1b57600080fd5b818501915085601f830112611d2f57600080fd5b813581811115611d4157611d41611c90565b8060051b9150611d52848301611cbf565b8181529183018401918481019088841115611d6c57600080fd5b938501935b83851015611d9157611d8285611b64565b82529385019390850190611d71565b98975050505050505050565b60008060208385031215611db057600080fd5b823567ffffffffffffffff811115611dc757600080fd5b611dd385828601611ba3565b90969095509350505050565b60008060008060608587031215611df557600080fd5b611dfe85611b64565b9350611e0c60208601611b64565b9250604085013567ffffffffffffffff811115611e2857600080fd5b611e3487828801611ba3565b95989497509550505050565b600080600060608486031215611e5557600080fd5b611e5e84611b64565b9250611e6c60208501611b64565b9150604084013590509250925092565b60008060208385031215611e8f57600080fd5b823567ffffffffffffffff80821115611ea757600080fd5b818501915085601f830112611ebb57600080fd5b813581811115611eca57600080fd5b8660208260051b8501011115611edf57600080fd5b60209290920196919550909350505050565b60008060408385031215611f0457600080fd5b611f0d83611b64565b946020939093013593505050565b60005b83811015611f36578181015183820152602001611f1e565b838111156107385750506000910152565b60008151808452611f5f816020860160208601611f1b565b601f01601f19169290920160200192915050565b6020815260006108966020830184611f47565b7f4e487b7100000000000000000000000000000000000000000000000000000000600052603260045260246000fd5b7f4e487b7100000000000000000000000000000000000000000000000000000000600052601160045260246000fd5b60007fffffffffffffffffffffffffffffffffffffffffffffffffffffffffffffffff82141561201657612016611fb5565b5060010190565b6020808252825182820181905260009190848201906040850190845b8181101561206b57835173ffffffffffffffffffffffffffffffffffffffff1683529284019291840191600101612039565b50909695505050505050565b60006020828403121561208957600080fd5b81518015158114611b5d57600080fd5b60208082528181018390526000908460408401835b868110156120e75773ffffffffffffffffffffffffffffffffffffffff6120d484611b64565b16825291830191908301906001016120ae565b509695505050505050565b60006020828403121561210457600080fd5b5051919050565b60006020828403121561211d57600080fd5b815167ffffffffffffffff8082111561213557600080fd5b818401915084601f83011261214957600080fd5b81518181111561215b5761215b611c90565b61216e6020601f19601f84011601611cbf565b915080825285602082850101111561218557600080fd5b612196816020840160208601611f1b565b50949350505050565b7f24000000000000000000000000000000000000000000000000000000000000008152600082516121d7816001850160208701611f1b565b7f20746f6b656e207472616e7366657200000000000000000000000000000000006001939091019283015250601001919050565b60006020828403121561221d57600080fd5b5035919050565b60006020828403121561223657600080fd5b813567ffffffffffffffff81168114611b5d57600080fd5b600082612284577f4e487b7100000000000000000000000000000000000000000000000000000000600052601260045260246000fd5b500690565b60008282101561229b5761229b611fb5565b500390565b600082198211156122b3576122b3611fb5565b500190565b8183823760009101908152919050565b73ffffffffffffffffffffffffffffffffffffffff831681526040602082015260006114ca6040830184611f47565b6000817fffffffffffffffffffffffffffffffffffffffffffffffffffffffffffffffff048311821515161561232f5761232f611fb5565b500290565b600181815b8085111561238d57817fffffffffffffffffffffffffffffffffffffffffffffffffffffffffffffffff0482111561237357612373611fb5565b8085161561238057918102915b93841c9390800290612339565b509250929050565b6000826123a457506001610899565b816123b157506000610899565b81600181146123c757600281146123d1576123ed565b6001915050610899565b60ff8411156123e2576123e2611fb5565b50506001821b610899565b5060208310610133831016604e8410600b8410161715612410575081810a610899565b61241a8383612334565b807fffffffffffffffffffffffffffffffffffffffffffffffffffffffffffffffff0482111561244c5761244c611fb5565b029392505050565b60006108968383612395565b7f4e487b7100000000000000000000000000000000000000000000000000000000600052602160045260246000fdfea2646970667358221220013a07b675f6784ee19a8831eb747fb2ae031e39e2681c124e0c6eb757e8242c64736f6c634300080a0033",
  "linkReferences": {},
  "deployedLinkReferences": {}
}