{
  "_format": "hh-sol-artifact-1",
  "contractName": "ERC20UniqueNonceValidatorFactory",
  "sourceName": "contracts/factories/ERC20UniqueNonceValidator.sol",
  "abi": [
    {
      "inputs": [],
      "stateMutability": "nonpayable",
      "type": "constructor"
    },
    {
      "inputs": [],
      "name": "CreateFail",
      "type": "error"
    },
    {
      "anonymous": false,
      "inputs": [
        {
          "indexed": true,
          "internalType": "address",
          "name": "creator",
          "type": "address"
        },
        {
          "indexed": true,
          "internalType": "uint256",
          "name": "nonce",
          "type": "uint256"
        },
        {
          "indexed": false,
          "internalType": "address",
          "name": "instance",
          "type": "address"
        },
        {
          "indexed": false,
          "internalType": "address",
          "name": "owner",
          "type": "address"
        },
        {
          "indexed": false,
          "internalType": "address",
          "name": "token",
          "type": "address"
        },
        {
          "indexed": false,
          "internalType": "uint256",
          "name": "amount",
          "type": "uint256"
        }
      ],
      "name": "Cloned",
      "type": "event"
    },
    {
      "inputs": [
        {
          "internalType": "uint256",
          "name": "nonce",
          "type": "uint256"
        },
        {
          "internalType": "address",
          "name": "owner",
          "type": "address"
        },
        {
          "internalType": "address",
          "name": "token",
          "type": "address"
        },
        {
          "internalType": "uint256",
          "name": "amount",
          "type": "uint256"
        },
        {
          "internalType": "address[]",
          "name": "issuers",
          "type": "address[]"
        }
      ],
      "name": "create",
      "outputs": [
        {
          "internalType": "contract ERC20UniqueNonceValidator",
          "name": "",
          "type": "address"
        }
      ],
      "stateMutability": "nonpayable",
      "type": "function"
    },
    {
      "inputs": [],
      "name": "implementation",
      "outputs": [
        {
          "internalType": "contract ERC20UniqueNonceValidator",
          "name": "",
          "type": "address"
        }
      ],
      "stateMutability": "view",
      "type": "function"
    }
  ],
  "bytecode": "0x60a060405234801561001057600080fd5b5060405161001d9061004b565b604051809103906000f080158015610039573d6000803e3d6000fd5b506001600160a01b0316608052610058565b612292806106d483390190565b60805161065b6100796000396000818160400152610138015261065b6000f3fe608060405234801561001057600080fd5b50600436106100365760003560e01c80635c60da1b1461003b578063bd47615c1461008b575b600080fd5b6100627f000000000000000000000000000000000000000000000000000000000000000081565b60405173ffffffffffffffffffffffffffffffffffffffff909116815260200160405180910390f35b6100626100993660046104b1565b6040517fffffffffffffffffffffffffffffffffffffffff00000000000000000000000030606090811b8216602084015286811b8216603484015285901b166048820152605c81018390526000908190607c01604080517fffffffffffffffffffffffffffffffffffffffffffffffffffffffffffffffe08184030181529190529050600061015e73ffffffffffffffffffffffffffffffffffffffff7f00000000000000000000000000000000000000000000000000000000000000001683610253565b6040517f466fd51c00000000000000000000000000000000000000000000000000000000815290915073ffffffffffffffffffffffffffffffffffffffff82169063466fd51c906101b39087906004016105cb565b600060405180830381600087803b1580156101cd57600080fd5b505af11580156101e1573d6000803e3d6000fd5b50506040805173ffffffffffffffffffffffffffffffffffffffff85811682528b811660208301528a16818301526060810189905290518b93503392507f032be52d8b132fa7fb18fd872d3ada9bbf9bd9648d9fc784351b3fcdce8183629181900360800190a3979650505050505050565b80516040517f3d610000000000000000000000000000000000000000000000000000000000008152603a820160f081811b6002848101919091527f80600b3d3981f30000000000000000000000000000000000000000000000000060048501527f363d3d3761000000000000000000000000000000000000000000000000000000600b8501528401901b601083018190527f603836393d3d3d366100000000000000000000000000000000000000000000006012840152601b8301527f013d730000000000000000000000000000000000000000000000000000000000601d830152606085901b6020808401919091527f5af43d82803e903d91603657fd5bf3000000000000000000000000000000000060348401526000939260458401929186019084604382015b602082106103b957835181526020938401937fffffffffffffffffffffffffffffffffffffffffffffffffffffffffffffffe0909201910161037c565b83517fffffffffffffffffffffffffffffffffffffffffffffffffffffffffffffffff60208490036101000a0119908116825260f088901b91830191825286846000f0985073ffffffffffffffffffffffffffffffffffffffff891661044b576040517febfef18800000000000000000000000000000000000000000000000000000000815260040160405180910390fd5b505050505050505092915050565b803573ffffffffffffffffffffffffffffffffffffffff8116811461047d57600080fd5b919050565b7f4e487b7100000000000000000000000000000000000000000000000000000000600052604160045260246000fd5b600080600080600060a086880312156104c957600080fd5b8535945060206104da818801610459565b94506104e860408801610459565b935060608701359250608087013567ffffffffffffffff8082111561050c57600080fd5b818901915089601f83011261052057600080fd5b81358181111561053257610532610482565b8060051b6040517fffffffffffffffffffffffffffffffffffffffffffffffffffffffffffffffe0603f8301168101818110858211171561057557610575610482565b60405291825284820192508381018501918c83111561059357600080fd5b938501935b828510156105b8576105a985610459565b84529385019392850192610598565b8096505050505050509295509295909350565b6020808252825182820181905260009190848201906040850190845b8181101561061957835173ffffffffffffffffffffffffffffffffffffffff16835292840192918401916001016105e7565b5090969550505050505056fea2646970667358221220098d9d606b70a26e8dfb4977b72bfc32200e5a93cee335e4b2449e4ce0485ee164736f6c634300080a003360a060405234801561001057600080fd5b503060805260805161224d610045600039600081816102c0015281816103b20152818161055001526105e2015261224d6000f3fe608060405234801561001057600080fd5b50600436106100d45760003560e01c80638da5cb5b11610081578063c77d85151161005b578063c77d851514610260578063e8b1a9b214610273578063fc85b9e41461028657600080fd5b80638da5cb5b1461020d578063a5c1e8951461023a578063beabacc81461024d57600080fd5b80633b8c450c116100b25780633b8c450c14610179578063466fd51c146101b95780637a453bac146101ce57600080fd5b806301ffc9a7146100d95780632f54bf6e1461014357806338a7543e14610156575b600080fd5b61012e6100e7366004611865565b7fffffffff00000000000000000000000000000000000000000000000000000000167f01ffc9a7000000000000000000000000000000000000000000000000000000001490565b60405190151581526020015b60405180910390f35b61012e6101513660046118cb565b6102a6565b61012e6101643660046118cb565b60016020526000908152604090205460ff1681565b61018c610187366004611928565b610397565b6040805173ffffffffffffffffffffffffffffffffffffffff93841681529290911660208301520161013a565b6101cc6101c7366004611a33565b610429565b005b6101e16101dc366004611ae0565b610535565b6040805173ffffffffffffffffffffffffffffffffffffffff909316835260208301919091520161013a565b6102156105c8565b60405173ffffffffffffffffffffffffffffffffffffffff909116815260200161013a565b61012e610248366004611b22565b610649565b6101cc61025b366004611b83565b610660565b6101cc61026e366004611bbf565b61073e565b61012e610281366004611c34565b610858565b610299610294366004611b22565b61089d565b60405161013a9190611c8a565b60003073ffffffffffffffffffffffffffffffffffffffff7f0000000000000000000000000000000000000000000000000000000000000000161415610318576040517ff56b123b00000000000000000000000000000000000000000000000000000000815260040160405180910390fd5b61032260006108ab565b73ffffffffffffffffffffffffffffffffffffffff168273ffffffffffffffffffffffffffffffffffffffff16148061038f575061036060146108ab565b73ffffffffffffffffffffffffffffffffffffffff168273ffffffffffffffffffffffffffffffffffffffff16145b90505b919050565b6000803073ffffffffffffffffffffffffffffffffffffffff7f000000000000000000000000000000000000000000000000000000000000000016141561040a576040517ff56b123b00000000000000000000000000000000000000000000000000000000815260040160405180910390fd5b610419898989898989896108ee565b9150915097509795505050505050565b610432336102a6565b610468576040517f1648fd0100000000000000000000000000000000000000000000000000000000815260040160405180910390fd5b60005b81518110156104fa57600180600084848151811061048b5761048b611cbd565b60209081029190910181015173ffffffffffffffffffffffffffffffffffffffff16825281019190915260400160002080547fffffffffffffffffffffffffffffffffffffffffffffffffffffffffffffff0016911515919091179055806104f281611d1b565b91505061046b565b507faad2373bff58b592b196d090a3ac0afe6726ad45e112affc585f6b8f59c394388160405161052a9190611d54565b60405180910390a150565b6000803073ffffffffffffffffffffffffffffffffffffffff7f00000000000000000000000000000000000000000000000000000000000000001614156105a8576040517ff56b123b00000000000000000000000000000000000000000000000000000000815260040160405180910390fd5b6105b260286108ab565b6105bc603c610a2b565b915091505b9250929050565b60003073ffffffffffffffffffffffffffffffffffffffff7f000000000000000000000000000000000000000000000000000000000000000016141561063a576040517ff56b123b00000000000000000000000000000000000000000000000000000000815260040160405180910390fd5b61064460146108ab565b905090565b600061065785858585610a6b565b95945050505050565b610669336102a6565b61069f576040517f1648fd0100000000000000000000000000000000000000000000000000000000815260040160405180910390fd5b6040517fa9059cbb00000000000000000000000000000000000000000000000000000000815273ffffffffffffffffffffffffffffffffffffffff83811660048301526024820183905284169063a9059cbb906044016020604051808303816000875af1158015610714573d6000803e3d6000fd5b505050506040513d601f19601f820116820180604052508101906107389190611dae565b50505050565b610747336102a6565b61077d576040517f1648fd0100000000000000000000000000000000000000000000000000000000815260040160405180910390fd5b60005b8181101561081a576000600160008585858181106107a0576107a0611cbd565b90506020020160208101906107b591906118cb565b73ffffffffffffffffffffffffffffffffffffffff168152602081019190915260400160002080547fffffffffffffffffffffffffffffffffffffffffffffffffffffffffffffff00169115159190911790558061081281611d1b565b915050610780565b507f1c0e076cccd8d672f71d51d86a107970e24233bb9b3abd0eacc60c523c76f1a0828260405161084c929190611dd0565b60405180910390a15050565b73ffffffffffffffffffffffffffffffffffffffff8216600090815260208181526040808320600885901c8452909152812054600160ff84161b1615155b9392505050565b606061065785858585610b2f565b6000806108e07ffffffffffffffffffffffffffffffffffffffffffffffffffffffffffffffffe368181013560f01c90030190565b929092013560601c92915050565b60008061090089898989898989610c12565b90925090506000806109128a8a610535565b6040517fa9059cbb00000000000000000000000000000000000000000000000000000000815273ffffffffffffffffffffffffffffffffffffffff8e81166004830152602482018390529294509092509083169063a9059cbb906044016020604051808303816000875af115801561098e573d6000803e3d6000fd5b505050506040513d601f19601f820116820180604052508101906109b29190611dae565b610a1d576040517f08c379a000000000000000000000000000000000000000000000000000000000815260206004820152600f60248201527f5472616e73666572206661696c6564000000000000000000000000000000000060448201526064015b60405180910390fd5b505097509795505050505050565b600080610a607ffffffffffffffffffffffffffffffffffffffffffffffffffffffffffffffffe368181013560f01c90030190565b929092013592915050565b6000806000610a7a8585610535565b6040517f70a082310000000000000000000000000000000000000000000000000000000081523060048201529193509150819073ffffffffffffffffffffffffffffffffffffffff8416906370a0823190602401602060405180830381865afa158015610aeb573d6000803e3d6000fd5b505050506040513d601f19601f82011682018060405250810190610b0f9190611e29565b10158015610b245750610b2487878787610cfa565b979650505050505050565b6060600080610b3e8585610535565b9150915060008273ffffffffffffffffffffffffffffffffffffffff166395d89b416040518163ffffffff1660e01b8152600401600060405180830381865afa158015610b8f573d6000803e3d6000fd5b505050506040513d6000823e601f3d908101601f19168201604052610bb79190810190611e42565b905080610bdb73ffffffffffffffffffffffffffffffffffffffff85166014610d6e565b610be484610fb1565b604051602001610bf693929190611ed6565b6040516020818303038152906040529350505050949350505050565b600080610c24898989898989896110eb565b90925090506000610c37888a018a61200c565b73ffffffffffffffffffffffffffffffffffffffff8416600090815260208181526040808320600885901c8452909152902054909150600160ff83161b1615610caf576040517f91cab50400000000000000000000000000000000000000000000000000000000815260048101829052602401610a14565b73ffffffffffffffffffffffffffffffffffffffff8316600090815260208181526040808320600885901c845290915290208054600160ff84161b1790555097509795505050505050565b600080610d0983850185612025565b73ffffffffffffffffffffffffffffffffffffffff8716600090815260208181526040808320600885901c66ffffffffffffff168452909152902054909150600160ff83161b16158015610d645750610d64868686866111f8565b9695505050505050565b60606000610d7d83600261204f565b610d8890600261208c565b67ffffffffffffffff811115610da057610da06119d3565b6040519080825280601f01601f191660200182016040528015610dca576020820181803683370190505b5090507f300000000000000000000000000000000000000000000000000000000000000081600081518110610e0157610e01611cbd565b60200101907effffffffffffffffffffffffffffffffffffffffffffffffffffffffffffff1916908160001a9053507f780000000000000000000000000000000000000000000000000000000000000081600181518110610e6457610e64611cbd565b60200101907effffffffffffffffffffffffffffffffffffffffffffffffffffffffffffff1916908160001a9053506000610ea084600261204f565b610eab90600161208c565b90505b6001811115610f48577f303132333435363738396162636465660000000000000000000000000000000085600f1660108110610eec57610eec611cbd565b1a60f81b828281518110610f0257610f02611cbd565b60200101907effffffffffffffffffffffffffffffffffffffffffffffffffffffffffffff1916908160001a90535060049490941c93610f41816120a4565b9050610eae565b508315610896576040517f08c379a000000000000000000000000000000000000000000000000000000000815260206004820181905260248201527f537472696e67733a20686578206c656e67746820696e73756666696369656e746044820152606401610a14565b606081610ff157505060408051808201909152600181527f3000000000000000000000000000000000000000000000000000000000000000602082015290565b8160005b811561101b578061100581611d1b565b91506110149050600a83612108565b9150610ff5565b60008167ffffffffffffffff811115611036576110366119d3565b6040519080825280601f01601f191660200182016040528015611060576020820181803683370190505b5090505b84156110e35761107560018361211c565b9150611082600a86612133565b61108d90603061208c565b60f81b8183815181106110a2576110a2611cbd565b60200101907effffffffffffffffffffffffffffffffffffffffffffffffffffffffffffff1916908160001a9053506110dc600a86612108565b9450611064565b949350505050565b6000806110fe308a8a8a8a8a8a8a611226565b73ffffffffffffffffffffffffffffffffffffffff8216600090815260016020526040902054919350915060ff1661117a576040517fe9d960d800000000000000000000000000000000000000000000000000000000815273ffffffffffffffffffffffffffffffffffffffff83166004820152602401610a14565b8173ffffffffffffffffffffffffffffffffffffffff1686866040516111a1929190612147565b60405180910390207f0a158788e8cf68529772dfddf48c06235a45b4d08e0ec8f32aab01ff153018528b8b8b8b8b8b8b6040516111e49796959493929190612182565b60405180910390a397509795505050505050565b73ffffffffffffffffffffffffffffffffffffffff841660009081526001602052604081205460ff16610657565b60008060008a878760405161123c929190612147565b6040519081900381207f190000000000000000000000000000000000000000000000000000000000000060208301527fffffffffffffffffffffffffffffffffffffffff000000000000000000000000606093841b811660228401527f800000000000000000000000000000000000000000000000000000000000000060368401526037830191909152918c901b9091166057820152606b01604051602081830303815290604052805190602001209050600061132f8287878080601f01602080910402602001604051908101604052809392919081815260200183838082843760009201919091525061142c92505050565b905060008c8b8b604051611344929190612147565b6040519081900381207f190000000000000000000000000000000000000000000000000000000000000060208301527fffffffffffffffffffffffffffffffffffffffff000000000000000000000000606093841b811660228401526000603684015260378301919091529184901b9091166057820152606b016040516020818303038152906040528051906020012090506000611418828b8b8080601f01602080910402602001604051908101604052809392919081815260200183838082843760009201919091525061142c92505050565b9e929d50919b505050505050505050505050565b600080600061143b8585611450565b91509150611448816114bd565b509392505050565b6000808251604114156114875760208301516040840151606085015160001a61147b87828585611719565b945094505050506105c1565b8251604014156114b157602083015160408401516114a6868383611813565b9350935050506105c1565b506000905060026105c1565b60008160048111156114d1576114d16121e8565b14156114da5750565b60018160048111156114ee576114ee6121e8565b1415611556576040517f08c379a000000000000000000000000000000000000000000000000000000000815260206004820152601860248201527f45434453413a20696e76616c6964207369676e617475726500000000000000006044820152606401610a14565b600281600481111561156a5761156a6121e8565b14156115d2576040517f08c379a000000000000000000000000000000000000000000000000000000000815260206004820152601f60248201527f45434453413a20696e76616c6964207369676e6174757265206c656e677468006044820152606401610a14565b60038160048111156115e6576115e66121e8565b1415611674576040517f08c379a000000000000000000000000000000000000000000000000000000000815260206004820152602260248201527f45434453413a20696e76616c6964207369676e6174757265202773272076616c60448201527f75650000000000000000000000000000000000000000000000000000000000006064820152608401610a14565b6004816004811115611688576116886121e8565b1415611716576040517f08c379a000000000000000000000000000000000000000000000000000000000815260206004820152602260248201527f45434453413a20696e76616c6964207369676e6174757265202776272076616c60448201527f75650000000000000000000000000000000000000000000000000000000000006064820152608401610a14565b50565b6000807f7fffffffffffffffffffffffffffffff5d576e7357a4501ddfe92f46681b20a0831115611750575060009050600361180a565b8460ff16601b1415801561176857508460ff16601c14155b15611779575060009050600461180a565b6040805160008082526020820180845289905260ff881692820192909252606081018690526080810185905260019060a0016020604051602081039080840390855afa1580156117cd573d6000803e3d6000fd5b5050604051601f19015191505073ffffffffffffffffffffffffffffffffffffffff81166118035760006001925092505061180a565b9150600090505b94509492505050565b6000807f7fffffffffffffffffffffffffffffffffffffffffffffffffffffffffffffff83168161184960ff86901c601b61208c565b905061185787828885611719565b935093505050935093915050565b60006020828403121561187757600080fd5b81357fffffffff000000000000000000000000000000000000000000000000000000008116811461089657600080fd5b803573ffffffffffffffffffffffffffffffffffffffff8116811461039257600080fd5b6000602082840312156118dd57600080fd5b610896826118a7565b60008083601f8401126118f857600080fd5b50813567ffffffffffffffff81111561191057600080fd5b6020830191508360208285010111156105c157600080fd5b60008060008060008060006080888a03121561194357600080fd5b61194c886118a7565b9650602088013567ffffffffffffffff8082111561196957600080fd5b6119758b838c016118e6565b909850965060408a013591508082111561198e57600080fd5b61199a8b838c016118e6565b909650945060608a01359150808211156119b357600080fd5b506119c08a828b016118e6565b989b979a50959850939692959293505050565b7f4e487b7100000000000000000000000000000000000000000000000000000000600052604160045260246000fd5b604051601f8201601f1916810167ffffffffffffffff81118282101715611a2b57611a2b6119d3565b604052919050565b60006020808385031215611a4657600080fd5b823567ffffffffffffffff80821115611a5e57600080fd5b818501915085601f830112611a7257600080fd5b813581811115611a8457611a846119d3565b8060051b9150611a95848301611a02565b8181529183018401918481019088841115611aaf57600080fd5b938501935b83851015611ad457611ac5856118a7565b82529385019390850190611ab4565b98975050505050505050565b60008060208385031215611af357600080fd5b823567ffffffffffffffff811115611b0a57600080fd5b611b16858286016118e6565b90969095509350505050565b60008060008060608587031215611b3857600080fd5b611b41856118a7565b9350611b4f602086016118a7565b9250604085013567ffffffffffffffff811115611b6b57600080fd5b611b77878288016118e6565b95989497509550505050565b600080600060608486031215611b9857600080fd5b611ba1846118a7565b9250611baf602085016118a7565b9150604084013590509250925092565b60008060208385031215611bd257600080fd5b823567ffffffffffffffff80821115611bea57600080fd5b818501915085601f830112611bfe57600080fd5b813581811115611c0d57600080fd5b8660208260051b8501011115611c2257600080fd5b60209290920196919550909350505050565b60008060408385031215611c4757600080fd5b611c50836118a7565b946020939093013593505050565b60005b83811015611c79578181015183820152602001611c61565b838111156107385750506000910152565b6020815260008251806020840152611ca9816040850160208701611c5e565b601f01601f19169190910160400192915050565b7f4e487b7100000000000000000000000000000000000000000000000000000000600052603260045260246000fd5b7f4e487b7100000000000000000000000000000000000000000000000000000000600052601160045260246000fd5b60007fffffffffffffffffffffffffffffffffffffffffffffffffffffffffffffffff821415611d4d57611d4d611cec565b5060010190565b6020808252825182820181905260009190848201906040850190845b81811015611da257835173ffffffffffffffffffffffffffffffffffffffff1683529284019291840191600101611d70565b50909695505050505050565b600060208284031215611dc057600080fd5b8151801515811461089657600080fd5b60208082528181018390526000908460408401835b86811015611e1e5773ffffffffffffffffffffffffffffffffffffffff611e0b846118a7565b1682529183019190830190600101611de5565b509695505050505050565b600060208284031215611e3b57600080fd5b5051919050565b600060208284031215611e5457600080fd5b815167ffffffffffffffff80821115611e6c57600080fd5b818401915084601f830112611e8057600080fd5b815181811115611e9257611e926119d3565b611ea56020601f19601f84011601611a02565b9150808252856020828501011115611ebc57600080fd5b611ecd816020840160208601611c5e565b50949350505050565b7f7b2276616c6964223a747275652c2264617461223a7b227469746c65223a202281527f2400000000000000000000000000000000000000000000000000000000000000602082015260008451611f34816021850160208901611c5e565b7f20746f6b656e207472616e73666572222c2022746f6b656e74797065223a32306021918401918201527f2c22746f6b656e223a220000000000000000000000000000000000000000000060418201528451611f9781604b840160208901611c5e565b7f222c22616d6f756e74223a220000000000000000000000000000000000000000604b92909101918201528351611fd5816057840160208801611c5e565b7f227d7d000000000000000000000000000000000000000000000000000000000060579290910191820152605a0195945050505050565b60006020828403121561201e57600080fd5b5035919050565b60006020828403121561203757600080fd5b813567ffffffffffffffff8116811461089657600080fd5b6000817fffffffffffffffffffffffffffffffffffffffffffffffffffffffffffffffff048311821515161561208757612087611cec565b500290565b6000821982111561209f5761209f611cec565b500190565b6000816120b3576120b3611cec565b507fffffffffffffffffffffffffffffffffffffffffffffffffffffffffffffffff0190565b7f4e487b7100000000000000000000000000000000000000000000000000000000600052601260045260246000fd5b600082612117576121176120d9565b500490565b60008282101561212e5761212e611cec565b500390565b600082612142576121426120d9565b500690565b8183823760009101908152919050565b818352818160208501375060006020828401015260006020601f19601f840116840101905092915050565b73ffffffffffffffffffffffffffffffffffffffff881681526080602082015260006121b260808301888a612157565b82810360408401526121c5818789612157565b905082810360608401526121da818587612157565b9a9950505050505050505050565b7f4e487b7100000000000000000000000000000000000000000000000000000000600052602160045260246000fdfea26469706673582212209d8e93321f4ab5eae0a988b4c39deb870c58e089a573dd7fe87776047774ffa764736f6c634300080a0033",
  "linkReferences": {},
  "deployedLinkReferences": {}
}