{
  "address": "0x6b12A820C2e71d007696bFFF1e6985c6e9080faa",
  "abi": [
    {
      "inputs": [],
      "stateMutability": "nonpayable",
      "type": "constructor"
    },
    {
      "inputs": [],
      "name": "CreateFail",
      "type": "error"
    },
    {
      "anonymous": false,
      "inputs": [
        {
          "indexed": false,
          "internalType": "address",
          "name": "creator",
          "type": "address"
        },
        {
          "indexed": false,
          "internalType": "uint256",
          "name": "nonce",
          "type": "uint256"
        },
        {
          "indexed": false,
          "internalType": "address",
          "name": "instance",
          "type": "address"
        }
      ],
      "name": "Cloned",
      "type": "event"
    },
    {
      "inputs": [
        {
          "internalType": "uint256",
          "name": "nonce",
          "type": "uint256"
        },
        {
          "internalType": "address",
          "name": "owner",
          "type": "address"
        },
        {
          "internalType": "address",
          "name": "token",
          "type": "address"
        },
        {
          "internalType": "address",
          "name": "sender",
          "type": "address"
        },
        {
          "internalType": "uint256",
          "name": "amount",
          "type": "uint256"
        },
        {
          "internalType": "address[]",
          "name": "issuers",
          "type": "address[]"
        }
      ],
      "name": "create",
      "outputs": [
        {
          "internalType": "contract ERC20TransferUniqueNonceValidator",
          "name": "",
          "type": "address"
        }
      ],
      "stateMutability": "nonpayable",
      "type": "function"
    },
    {
      "inputs": [],
      "name": "implementation",
      "outputs": [
        {
          "internalType": "contract ERC20TransferUniqueNonceValidator",
          "name": "",
          "type": "address"
        }
      ],
      "stateMutability": "view",
      "type": "function"
    }
  ],
  "transactionHash": "0x2089a60515a2c828b54cb9518c1bcf32f838cbc0901e8e9c710c524a974dae4e",
  "args": [],
  "numDeployments": 1,
  "solcInputHash": "7090f1abdc56d876cfcac55473d140db",
  "bytecode": "0x60a060405234801561001057600080fd5b5060405161001d9061004b565b604051809103906000f080158015610039573d6000803e3d6000fd5b506001600160a01b0316608052610058565b6123df806106e683390190565b60805161066d61007960003960008181607c0152610147015261066d6000f3fe608060405234801561001057600080fd5b50600436106100365760003560e01c80633761dad81461003b5780635c60da1b14610077575b600080fd5b61004e6100493660046104b4565b61009e565b60405173ffffffffffffffffffffffffffffffffffffffff909116815260200160405180910390f35b61004e7f000000000000000000000000000000000000000000000000000000000000000081565b6040517fffffffffffffffffffffffffffffffffffffffff00000000000000000000000030606090811b8216602084015287811b8216603484015286811b8216604884015285901b16605c820152607081018390526000908190609001604080517fffffffffffffffffffffffffffffffffffffffffffffffffffffffffffffffe08184030181529190529050600061016d73ffffffffffffffffffffffffffffffffffffffff7f00000000000000000000000000000000000000000000000000000000000000001683610256565b6040517f466fd51c00000000000000000000000000000000000000000000000000000000815290915073ffffffffffffffffffffffffffffffffffffffff82169063466fd51c906101c29087906004016105dd565b600060405180830381600087803b1580156101dc57600080fd5b505af11580156101f0573d6000803e3d6000fd5b505060408051338152602081018d905273ffffffffffffffffffffffffffffffffffffffff85168183015290517fa25d207f3bfe2010a919105302735685a86a1981ad33a4fd49dd08f9b82ccdff9350908190036060019150a198975050505050505050565b80516040517f3d610000000000000000000000000000000000000000000000000000000000008152603a820160f081811b6002848101919091527f80600b3d3981f30000000000000000000000000000000000000000000000000060048501527f363d3d3761000000000000000000000000000000000000000000000000000000600b8501528401901b601083018190527f603836393d3d3d366100000000000000000000000000000000000000000000006012840152601b8301527f013d730000000000000000000000000000000000000000000000000000000000601d830152606085901b6020808401919091527f5af43d82803e903d91603657fd5bf3000000000000000000000000000000000060348401526000939260458401929186019084604382015b602082106103bc57835181526020938401937fffffffffffffffffffffffffffffffffffffffffffffffffffffffffffffffe0909201910161037f565b83517fffffffffffffffffffffffffffffffffffffffffffffffffffffffffffffffff60208490036101000a0119908116825260f088901b91830191825286846000f0985073ffffffffffffffffffffffffffffffffffffffff891661044e576040517febfef18800000000000000000000000000000000000000000000000000000000815260040160405180910390fd5b505050505050505092915050565b803573ffffffffffffffffffffffffffffffffffffffff8116811461048057600080fd5b919050565b7f4e487b7100000000000000000000000000000000000000000000000000000000600052604160045260246000fd5b60008060008060008060c087890312156104cd57600080fd5b8635955060206104de81890161045c565b95506104ec6040890161045c565b94506104fa6060890161045c565b93506080880135925060a088013567ffffffffffffffff8082111561051e57600080fd5b818a0191508a601f83011261053257600080fd5b81358181111561054457610544610485565b8060051b6040517fffffffffffffffffffffffffffffffffffffffffffffffffffffffffffffffe0603f8301168101818110858211171561058757610587610485565b60405291825284820192508381018501918d8311156105a557600080fd5b938501935b828510156105ca576105bb8561045c565b845293850193928501926105aa565b8096505050505050509295509295509295565b6020808252825182820181905260009190848201906040850190845b8181101561062b57835173ffffffffffffffffffffffffffffffffffffffff16835292840192918401916001016105f9565b5090969550505050505056fea264697066735822122075dd85e11a139bf8bf8b9168afc08ed25423f79d6ef49bf8e3f668e6426135fa64736f6c634300080a003360a060405234801561001057600080fd5b50306080526080516123a86100376000396000818161028b015261037d01526123a86000f3fe608060405234801561001057600080fd5b50600436106100be5760003560e01c80637a453bac11610076578063c77d85151161005b578063c77d85151461022b578063e8b1a9b21461023e578063fc85b9e41461025157600080fd5b80637a453bac146101b85780638da5cb5b146101fe57600080fd5b806338a7543e116100a757806338a7543e146101405780633b8c450c14610163578063466fd51c146101a357600080fd5b806301ffc9a7146100c35780632f54bf6e1461012d575b600080fd5b6101186100d1366004611918565b7fffffffff00000000000000000000000000000000000000000000000000000000167f01ffc9a7000000000000000000000000000000000000000000000000000000001490565b60405190151581526020015b60405180910390f35b61011861013b36600461197e565b610271565b61011861014e36600461197e565b60016020526000908152604090205460ff1681565b6101766101713660046119db565b610362565b6040805173ffffffffffffffffffffffffffffffffffffffff938416815292909116602083015201610124565b6101b66101b1366004611ae6565b6103f4565b005b6101cb6101c6366004611b93565b610500565b6040805173ffffffffffffffffffffffffffffffffffffffff948516815293909216602084015290820152606001610124565b610206610530565b60405173ffffffffffffffffffffffffffffffffffffffff9091168152602001610124565b6101b6610239366004611bd5565b610541565b61011861024c366004611c4a565b61065b565b61026461025f366004611c74565b6106a0565b6040516101249190611d05565b60003073ffffffffffffffffffffffffffffffffffffffff7f00000000000000000000000000000000000000000000000000000000000000001614156102e3576040517ff56b123b00000000000000000000000000000000000000000000000000000000815260040160405180910390fd5b6102ed60006106b9565b73ffffffffffffffffffffffffffffffffffffffff168273ffffffffffffffffffffffffffffffffffffffff16148061035a575061032b60146106b9565b73ffffffffffffffffffffffffffffffffffffffff168273ffffffffffffffffffffffffffffffffffffffff16145b90505b919050565b6000803073ffffffffffffffffffffffffffffffffffffffff7f00000000000000000000000000000000000000000000000000000000000000001614156103d5576040517ff56b123b00000000000000000000000000000000000000000000000000000000815260040160405180910390fd5b6103e4898989898989896106fc565b9150915097509795505050505050565b6103fd33610271565b610433576040517f1648fd0100000000000000000000000000000000000000000000000000000000815260040160405180910390fd5b60005b81518110156104c557600180600084848151811061045657610456611d38565b60209081029190910181015173ffffffffffffffffffffffffffffffffffffffff16825281019190915260400160002080547fffffffffffffffffffffffffffffffffffffffffffffffffffffffffffffff0016911515919091179055806104bd81611d96565b915050610436565b507faad2373bff58b592b196d090a3ac0afe6726ad45e112affc585f6b8f59c39438816040516104f59190611dcf565b60405180910390a150565b600080600061050f60286106b9565b610519603c6106b9565b610523605061084d565b9250925092509250925092565b600061053c60146106b9565b905090565b61054a33610271565b610580576040517f1648fd0100000000000000000000000000000000000000000000000000000000815260040160405180910390fd5b60005b8181101561061d576000600160008585858181106105a3576105a3611d38565b90506020020160208101906105b8919061197e565b73ffffffffffffffffffffffffffffffffffffffff168152602081019190915260400160002080547fffffffffffffffffffffffffffffffffffffffffffffffffffffffffffffff00169115159190911790558061061581611d96565b915050610583565b507f1c0e076cccd8d672f71d51d86a107970e24233bb9b3abd0eacc60c523c76f1a0828260405161064f929190611e29565b60405180910390a15050565b73ffffffffffffffffffffffffffffffffffffffff8216600090815260208181526040808320600885901c8452909152812054600160ff84161b1615155b9392505050565b60606106ae8585858561088d565b90505b949350505050565b6000806106ee7ffffffffffffffffffffffffffffffffffffffffffffffffffffffffffffffffe368181013560f01c90030190565b929092013560601c92915050565b60008061070e89898989898989610aaf565b9092509050600080806107218b8b610500565b9250925092508273ffffffffffffffffffffffffffffffffffffffff166323b872dd838e846040518463ffffffff1660e01b81526004016107909392919073ffffffffffffffffffffffffffffffffffffffff9384168152919092166020820152604081019190915260600190565b6020604051808303816000875af11580156107af573d6000803e3d6000fd5b505050506040513d601f19601f820116820180604052508101906107d39190611e82565b61083e576040517f08c379a000000000000000000000000000000000000000000000000000000000815260206004820152600f60248201527f5472616e73666572206661696c6564000000000000000000000000000000000060448201526064015b60405180910390fd5b50505097509795505050505050565b6000806108827ffffffffffffffffffffffffffffffffffffffffffffffffffffffffffffffffe368181013560f01c90030190565b929092013592915050565b6060600061089d86868686610b97565b8051909150156108ae5790506106b1565b60008060006108bd8787610500565b6040517fdd62ed3e00000000000000000000000000000000000000000000000000000000815273ffffffffffffffffffffffffffffffffffffffff8084166004830152306024830152939650919450925060009185169063dd62ed3e90604401602060405180830381865afa15801561093a573d6000803e3d6000fd5b505050506040513d601f19601f8201168201806040525081019061095e9190611ea4565b905060008473ffffffffffffffffffffffffffffffffffffffff166395d89b416040518163ffffffff1660e01b8152600401600060405180830381865afa1580156109ad573d6000803e3d6000fd5b505050506040513d6000823e601f3d908101601f191682016040526109d59190810190611ebd565b905082821015610a2c57610a006040518060600160405280602f81526020016122ae602f9139610c6c565b604051602001610a109190611f51565b60405160208183030381529060405296505050505050506106b1565b610a8081610a5173ffffffffffffffffffffffffffffffffffffffff88166014610dc0565b610a5a86611003565b604051602001610a6c93929190611f96565b604051602081830303815290604052610c6c565b604051602001610a909190611f51565b6040516020818303038152906040529650505050505050949350505050565b600080610ac189898989898989611135565b90925090506000610ad4888a018a6120cc565b73ffffffffffffffffffffffffffffffffffffffff8416600090815260208181526040808320600885901c8452909152902054909150600160ff83161b1615610b4c576040517f91cab50400000000000000000000000000000000000000000000000000000000815260048101829052602401610835565b73ffffffffffffffffffffffffffffffffffffffff8316600090815260208181526040808320600885901c845290915290208054600160ff84161b1790555097509795505050505050565b60606000610ba786868686611242565b805190915015610bb85790506106b1565b6000610bc6848601866120cc565b73ffffffffffffffffffffffffffffffffffffffff8816600090815260208181526040808320600885901c8452909152902054909150600160ff83161b1615610c5257610c2a6040518060600160405280602d8152602001612346602d9139610c6c565b604051602001610c3a9190611f51565b604051602081830303815290604052925050506106b1565b505060408051602081019091526000815295945050505050565b6060815160001415610c8c57505060408051602081019091526000815290565b60006040518060600160405280604081526020016122dd6040913990506000600384516002610cbb91906120e5565b610cc5919061212c565b610cd0906004612140565b67ffffffffffffffff811115610ce857610ce8611a86565b6040519080825280601f01601f191660200182016040528015610d12576020820181803683370190505b509050600182016020820185865187015b80821015610d7e576003820191508151603f8160121c168501518453600184019350603f81600c1c168501518453600184019350603f8160061c168501518453600184019350603f8116850151845350600183019250610d23565b5050600386510660018114610d9a5760028114610dad57610db5565b603d6001830353603d6002830353610db5565b603d60018303535b509195945050505050565b60606000610dcf836002612140565b610dda9060026120e5565b67ffffffffffffffff811115610df257610df2611a86565b6040519080825280601f01601f191660200182016040528015610e1c576020820181803683370190505b5090507f300000000000000000000000000000000000000000000000000000000000000081600081518110610e5357610e53611d38565b60200101907effffffffffffffffffffffffffffffffffffffffffffffffffffffffffffff1916908160001a9053507f780000000000000000000000000000000000000000000000000000000000000081600181518110610eb657610eb6611d38565b60200101907effffffffffffffffffffffffffffffffffffffffffffffffffffffffffffff1916908160001a9053506000610ef2846002612140565b610efd9060016120e5565b90505b6001811115610f9a577f303132333435363738396162636465660000000000000000000000000000000085600f1660108110610f3e57610f3e611d38565b1a60f81b828281518110610f5457610f54611d38565b60200101907effffffffffffffffffffffffffffffffffffffffffffffffffffffffffffff1916908160001a90535060049490941c93610f938161217d565b9050610f00565b508315610699576040517f08c379a000000000000000000000000000000000000000000000000000000000815260206004820181905260248201527f537472696e67733a20686578206c656e67746820696e73756666696369656e746044820152606401610835565b60608161104357505060408051808201909152600181527f3000000000000000000000000000000000000000000000000000000000000000602082015290565b8160005b811561106d578061105781611d96565b91506110669050600a8361212c565b9150611047565b60008167ffffffffffffffff81111561108857611088611a86565b6040519080825280601f01601f1916602001820160405280156110b2576020820181803683370190505b5090505b84156106b1576110c76001836121b2565b91506110d4600a866121c9565b6110df9060306120e5565b60f81b8183815181106110f4576110f4611d38565b60200101907effffffffffffffffffffffffffffffffffffffffffffffffffffffffffffff1916908160001a90535061112e600a8661212c565b94506110b6565b600080611148308a8a8a8a8a8a8a6112d6565b73ffffffffffffffffffffffffffffffffffffffff8216600090815260016020526040902054919350915060ff166111c4576040517fe9d960d800000000000000000000000000000000000000000000000000000000815273ffffffffffffffffffffffffffffffffffffffff83166004820152602401610835565b8173ffffffffffffffffffffffffffffffffffffffff1686866040516111eb9291906121dd565b60405180910390207f0a158788e8cf68529772dfddf48c06235a45b4d08e0ec8f32aab01ff153018528b8b8b8b8b8b8b60405161122e9796959493929190612218565b60405180910390a397509795505050505050565b60606112738573ffffffffffffffffffffffffffffffffffffffff1660009081526001602052604090205460ff1690565b6112be5761129860405180606001604052806029815260200161231d60299139610c6c565b6040516020016112a89190611f51565b60405160208183030381529060405290506106b1565b50604080516020810190915260008152949350505050565b60008060008a87876040516112ec9291906121dd565b6040519081900381207f190000000000000000000000000000000000000000000000000000000000000060208301527fffffffffffffffffffffffffffffffffffffffff000000000000000000000000606093841b811660228401527f800000000000000000000000000000000000000000000000000000000000000060368401526037830191909152918c901b9091166057820152606b0160405160208183030381529060405280519060200120905060006113df8287878080601f0160208091040260200160405190810160405280939291908181526020018383808284376000920191909152506114dc92505050565b905060008c8b8b6040516113f49291906121dd565b6040519081900381207f190000000000000000000000000000000000000000000000000000000000000060208301527fffffffffffffffffffffffffffffffffffffffff000000000000000000000000606093841b811660228401526000603684015260378301919091529184901b9091166057820152606b0160405160208183030381529060405280519060200120905060006114c8828b8b8080601f0160208091040260200160405190810160405280939291908181526020018383808284376000920191909152506114dc92505050565b9e929d50919b505050505050505050505050565b60008060006114eb8585611500565b915091506114f881611570565b509392505050565b6000808251604114156115375760208301516040840151606085015160001a61152b878285856117cc565b94509450505050611569565b82516040141561156157602083015160408401516115568683836118c6565b935093505050611569565b506000905060025b9250929050565b60008160048111156115845761158461227e565b141561158d5750565b60018160048111156115a1576115a161227e565b1415611609576040517f08c379a000000000000000000000000000000000000000000000000000000000815260206004820152601860248201527f45434453413a20696e76616c6964207369676e617475726500000000000000006044820152606401610835565b600281600481111561161d5761161d61227e565b1415611685576040517f08c379a000000000000000000000000000000000000000000000000000000000815260206004820152601f60248201527f45434453413a20696e76616c6964207369676e6174757265206c656e677468006044820152606401610835565b60038160048111156116995761169961227e565b1415611727576040517f08c379a000000000000000000000000000000000000000000000000000000000815260206004820152602260248201527f45434453413a20696e76616c6964207369676e6174757265202773272076616c60448201527f75650000000000000000000000000000000000000000000000000000000000006064820152608401610835565b600481600481111561173b5761173b61227e565b14156117c9576040517f08c379a000000000000000000000000000000000000000000000000000000000815260206004820152602260248201527f45434453413a20696e76616c6964207369676e6174757265202776272076616c60448201527f75650000000000000000000000000000000000000000000000000000000000006064820152608401610835565b50565b6000807f7fffffffffffffffffffffffffffffff5d576e7357a4501ddfe92f46681b20a083111561180357506000905060036118bd565b8460ff16601b1415801561181b57508460ff16601c14155b1561182c57506000905060046118bd565b6040805160008082526020820180845289905260ff881692820192909252606081018690526080810185905260019060a0016020604051602081039080840390855afa158015611880573d6000803e3d6000fd5b5050604051601f19015191505073ffffffffffffffffffffffffffffffffffffffff81166118b6576000600192509250506118bd565b9150600090505b94509492505050565b6000807f7fffffffffffffffffffffffffffffffffffffffffffffffffffffffffffffff8316816118fc60ff86901c601b6120e5565b905061190a878288856117cc565b935093505050935093915050565b60006020828403121561192a57600080fd5b81357fffffffff000000000000000000000000000000000000000000000000000000008116811461069957600080fd5b803573ffffffffffffffffffffffffffffffffffffffff8116811461035d57600080fd5b60006020828403121561199057600080fd5b6106998261195a565b60008083601f8401126119ab57600080fd5b50813567ffffffffffffffff8111156119c357600080fd5b60208301915083602082850101111561156957600080fd5b60008060008060008060006080888a0312156119f657600080fd5b6119ff8861195a565b9650602088013567ffffffffffffffff80821115611a1c57600080fd5b611a288b838c01611999565b909850965060408a0135915080821115611a4157600080fd5b611a4d8b838c01611999565b909650945060608a0135915080821115611a6657600080fd5b50611a738a828b01611999565b989b979a50959850939692959293505050565b7f4e487b7100000000000000000000000000000000000000000000000000000000600052604160045260246000fd5b604051601f8201601f1916810167ffffffffffffffff81118282101715611ade57611ade611a86565b604052919050565b60006020808385031215611af957600080fd5b823567ffffffffffffffff80821115611b1157600080fd5b818501915085601f830112611b2557600080fd5b813581811115611b3757611b37611a86565b8060051b9150611b48848301611ab5565b8181529183018401918481019088841115611b6257600080fd5b938501935b83851015611b8757611b788561195a565b82529385019390850190611b67565b98975050505050505050565b60008060208385031215611ba657600080fd5b823567ffffffffffffffff811115611bbd57600080fd5b611bc985828601611999565b90969095509350505050565b60008060208385031215611be857600080fd5b823567ffffffffffffffff80821115611c0057600080fd5b818501915085601f830112611c1457600080fd5b813581811115611c2357600080fd5b8660208260051b8501011115611c3857600080fd5b60209290920196919550909350505050565b60008060408385031215611c5d57600080fd5b611c668361195a565b946020939093013593505050565b60008060008060608587031215611c8a57600080fd5b611c938561195a565b9350611ca16020860161195a565b9250604085013567ffffffffffffffff811115611cbd57600080fd5b611cc987828801611999565b95989497509550505050565b60005b83811015611cf0578181015183820152602001611cd8565b83811115611cff576000848401525b50505050565b6020815260008251806020840152611d24816040850160208701611cd5565b601f01601f19169190910160400192915050565b7f4e487b7100000000000000000000000000000000000000000000000000000000600052603260045260246000fd5b7f4e487b7100000000000000000000000000000000000000000000000000000000600052601160045260246000fd5b60007fffffffffffffffffffffffffffffffffffffffffffffffffffffffffffffffff821415611dc857611dc8611d67565b5060010190565b6020808252825182820181905260009190848201906040850190845b81811015611e1d57835173ffffffffffffffffffffffffffffffffffffffff1683529284019291840191600101611deb565b50909695505050505050565b60208082528181018390526000908460408401835b86811015611e775773ffffffffffffffffffffffffffffffffffffffff611e648461195a565b1682529183019190830190600101611e3e565b509695505050505050565b600060208284031215611e9457600080fd5b8151801515811461069957600080fd5b600060208284031215611eb657600080fd5b5051919050565b600060208284031215611ecf57600080fd5b815167ffffffffffffffff80821115611ee757600080fd5b818401915084601f830112611efb57600080fd5b815181811115611f0d57611f0d611a86565b611f206020601f19601f84011601611ab5565b9150808252856020828501011115611f3757600080fd5b611f48816020840160208601611cd5565b50949350505050565b7f646174613a6170706c69636174696f6e2f6a736f6e3b6261736536342c000000815260008251611f8981601d850160208701611cd5565b91909101601d0192915050565b7f7b2276616c6964223a747275652c2264617461223a7b227469746c65223a202281527f2400000000000000000000000000000000000000000000000000000000000000602082015260008451611ff4816021850160208901611cd5565b7f20746f6b656e207472616e73666572222c2022746f6b656e74797065223a32306021918401918201527f2c22746f6b656e223a22000000000000000000000000000000000000000000006041820152845161205781604b840160208901611cd5565b7f222c22616d6f756e74223a220000000000000000000000000000000000000000604b92909101918201528351612095816057840160208801611cd5565b7f227d7d000000000000000000000000000000000000000000000000000000000060579290910191820152605a0195945050505050565b6000602082840312156120de57600080fd5b5035919050565b600082198211156120f8576120f8611d67565b500190565b7f4e487b7100000000000000000000000000000000000000000000000000000000600052601260045260246000fd5b60008261213b5761213b6120fd565b500490565b6000817fffffffffffffffffffffffffffffffffffffffffffffffffffffffffffffffff048311821515161561217857612178611d67565b500290565b60008161218c5761218c611d67565b507fffffffffffffffffffffffffffffffffffffffffffffffffffffffffffffffff0190565b6000828210156121c4576121c4611d67565b500390565b6000826121d8576121d86120fd565b500690565b8183823760009101908152919050565b818352818160208501375060006020828401015260006020601f19601f840116840101905092915050565b73ffffffffffffffffffffffffffffffffffffffff8816815260806020820152600061224860808301888a6121ed565b828103604084015261225b8187896121ed565b905082810360608401526122708185876121ed565b9a9950505050505050505050565b7f4e487b7100000000000000000000000000000000000000000000000000000000600052602160045260246000fdfe7b2276616c6964223a66616c73652c226572726f72223a22496e73756666696369656e742062616c616e63652e227d4142434445464748494a4b4c4d4e4f505152535455565758595a6162636465666768696a6b6c6d6e6f707172737475767778797a303132333435363738392b2f7b2276616c6964223a66616c73652c226572726f72223a22496e76616c6964206973737565722e227d7b2276616c6964223a66616c73652c226572726f72223a224e6f6e636520616c726561647920757365642e227da2646970667358221220d927e7b294c50d200f34233a8de9917ea9b7eeeb52b12e452309aa8ce2cb754b64736f6c634300080a0033",
  "devdoc": {
    "kind": "dev",
    "methods": {},
    "version": 1
  },
  "userdoc": {
    "kind": "user",
    "methods": {},
    "version": 1
  },
  "storageLayout": {
    "storage": [],
    "types": null
  }
}